

Microchip MPLAB XC8 Assembler V2.05 build -831301201 
                                                                                               Wed Dec 18 17:55:19 2019

Microchip MPLAB XC8 C Compiler v2.05 (Free license) build 20181220022703 Og1 
     1                           	processor	16F15355
     2                           	opt	pw 120
     3                           	opt	flic
     4                           	psect	stringtext1,global,class=STRCODE,delta=2
     5                           	psect	nvCOMMON,global,class=COMMON,space=1,delta=1
     6                           	psect	cinit,global,class=CODE,merge=1,delta=2
     7                           	psect	bssCOMMON,global,class=COMMON,space=1,delta=1
     8                           	psect	bssBANK0,global,class=BANK0,space=1,delta=1
     9                           	psect	cstackCOMMON,global,class=COMMON,space=1,delta=1
    10                           	psect	cstackBANK0,global,class=BANK0,space=1,delta=1
    11                           	psect	maintext,global,class=CODE,merge=1,split=1,delta=2
    12                           	psect	text1,local,class=CODE,merge=1,delta=2
    13                           	psect	text2,local,class=CODE,merge=1,delta=2
    14                           	psect	text3,local,class=CODE,merge=1,delta=2
    15                           	psect	text4,local,class=CODE,merge=1,delta=2
    16                           	psect	text5,local,class=CODE,merge=1,delta=2
    17                           	psect	text6,local,class=CODE,merge=1,delta=2
    18                           	psect	text7,local,class=CODE,merge=1,delta=2
    19                           	psect	intentry,global,class=CODE,delta=2
    20                           	psect	text9,local,class=CODE,merge=1,delta=2
    21                           	dabs	1,0x7E,2
    22  0000                     
    23                           ; Version 2.05
    24                           ; Generated 20/12/2018 GMT
    25                           ; 
    26                           ; Copyright © 2018, Microchip Technology Inc. and its subsidiaries ("Microchip")
    27                           ; All rights reserved.
    28                           ; 
    29                           ; This software is developed by Microchip Technology Inc. and its subsidiaries ("Microch
      +                          ip").
    30                           ; 
    31                           ; Redistribution and use in source and binary forms, with or without modification, are
    32                           ; permitted provided that the following conditions are met:
    33                           ; 
    34                           ;     1. Redistributions of source code must retain the above copyright notice, this lis
      +                          t of
    35                           ;        conditions and the following disclaimer.
    36                           ; 
    37                           ;     2. Redistributions in binary form must reproduce the above copyright notice, this 
      +                          list
    38                           ;        of conditions and the following disclaimer in the documentation and/or other
    39                           ;        materials provided with the distribution.
    40                           ; 
    41                           ;     3. Microchip's name may not be used to endorse or promote products derived from th
      +                          is
    42                           ;        software without specific prior written permission.
    43                           ; 
    44                           ; THIS SOFTWARE IS PROVIDED BY MICROCHIP "AS IS" AND ANY EXPRESS OR IMPLIED WARRANTIES,
    45                           ; INCLUDING, BUT NOT LIMITED TO, THE IMPLIED WARRANTIES OF MERCHANTABILITY AND FITNESS F
      +                          OR
    46                           ; PURPOSE ARE DISCLAIMED.  IN NO EVENT SHALL MICROCHIP BE LIABLE FOR ANY DIRECT, INDIREC
      +                          T,
    47                           ; INCIDENTAL, SPECIAL, EXEMPLARY, OR CONSEQUENTIAL DAMAGES (INCLUDING BUT NOT LIMITED TO
    48                           ; PROCUREMENT OF SUBSTITUTE GOODS OR SERVICES; LOSS OF USE, DATA OR PROFITS; OR BUSINESS
    49                           ; INTERRUPTION) HOWSOEVER CAUSED AND ON ANY THEORY OF LIABILITY, WHETHER IN CONTRACT, ST
      +                          RICT
    50                           ; LIABILITY, OR TORT (INCLUDING NEGLIGENCE OR OTHERWISE) ARISING IN ANY WAY OUT OF THE U
      +                          SE OF
    51                           ; THIS SOFTWARE, EVEN IF ADVISED OF THE POSSIBILITY OF SUCH DAMAGE.
    52                           ; 
    53                           ; 
    54                           ; Code-generator required, PIC16F15355 Definitions
    55                           ; 
    56                           ; SFR Addresses
    57  0000                     	;# 
    58  0001                     	;# 
    59  0002                     	;# 
    60  0003                     	;# 
    61  0004                     	;# 
    62  0005                     	;# 
    63  0006                     	;# 
    64  0007                     	;# 
    65  0008                     	;# 
    66  0009                     	;# 
    67  000A                     	;# 
    68  000B                     	;# 
    69  000C                     	;# 
    70  000D                     	;# 
    71  000E                     	;# 
    72  0010                     	;# 
    73  0012                     	;# 
    74  0013                     	;# 
    75  0014                     	;# 
    76  0016                     	;# 
    77  0018                     	;# 
    78  0019                     	;# 
    79  001A                     	;# 
    80  009B                     	;# 
    81  009B                     	;# 
    82  009C                     	;# 
    83  009D                     	;# 
    84  009E                     	;# 
    85  009F                     	;# 
    86  0119                     	;# 
    87  0119                     	;# 
    88  0119                     	;# 
    89  011A                     	;# 
    90  011A                     	;# 
    91  011A                     	;# 
    92  011B                     	;# 
    93  011B                     	;# 
    94  011B                     	;# 
    95  011B                     	;# 
    96  011B                     	;# 
    97  011C                     	;# 
    98  011C                     	;# 
    99  011C                     	;# 
   100  011D                     	;# 
   101  011D                     	;# 
   102  011D                     	;# 
   103  011E                     	;# 
   104  011E                     	;# 
   105  011E                     	;# 
   106  011F                     	;# 
   107  011F                     	;# 
   108  011F                     	;# 
   109  011F                     	;# 
   110  011F                     	;# 
   111  018C                     	;# 
   112  018D                     	;# 
   113  018E                     	;# 
   114  018F                     	;# 
   115  0190                     	;# 
   116  0191                     	;# 
   117  0192                     	;# 
   118  0196                     	;# 
   119  0197                     	;# 
   120  0198                     	;# 
   121  0199                     	;# 
   122  019A                     	;# 
   123  019B                     	;# 
   124  019C                     	;# 
   125  020C                     	;# 
   126  020C                     	;# 
   127  020D                     	;# 
   128  020E                     	;# 
   129  020F                     	;# 
   130  020F                     	;# 
   131  0210                     	;# 
   132  0210                     	;# 
   133  0211                     	;# 
   134  0211                     	;# 
   135  028C                     	;# 
   136  028C                     	;# 
   137  028D                     	;# 
   138  028D                     	;# 
   139  028E                     	;# 
   140  028F                     	;# 
   141  0290                     	;# 
   142  0291                     	;# 
   143  030C                     	;# 
   144  030C                     	;# 
   145  030D                     	;# 
   146  030E                     	;# 
   147  030F                     	;# 
   148  0310                     	;# 
   149  0310                     	;# 
   150  0311                     	;# 
   151  0312                     	;# 
   152  0313                     	;# 
   153  0314                     	;# 
   154  0314                     	;# 
   155  0315                     	;# 
   156  0316                     	;# 
   157  0318                     	;# 
   158  0318                     	;# 
   159  0319                     	;# 
   160  031A                     	;# 
   161  031C                     	;# 
   162  031C                     	;# 
   163  031D                     	;# 
   164  031E                     	;# 
   165  038C                     	;# 
   166  038C                     	;# 
   167  038D                     	;# 
   168  038E                     	;# 
   169  058C                     	;# 
   170  058C                     	;# 
   171  058D                     	;# 
   172  058E                     	;# 
   173  058F                     	;# 
   174  058F                     	;# 
   175  0590                     	;# 
   176  0591                     	;# 
   177  0592                     	;# 
   178  0593                     	;# 
   179  059C                     	;# 
   180  059C                     	;# 
   181  059D                     	;# 
   182  059D                     	;# 
   183  059E                     	;# 
   184  059F                     	;# 
   185  060C                     	;# 
   186  060D                     	;# 
   187  060E                     	;# 
   188  060F                     	;# 
   189  0610                     	;# 
   190  0611                     	;# 
   191  0612                     	;# 
   192  0613                     	;# 
   193  0614                     	;# 
   194  070C                     	;# 
   195  070D                     	;# 
   196  070E                     	;# 
   197  070F                     	;# 
   198  0710                     	;# 
   199  0711                     	;# 
   200  0712                     	;# 
   201  0713                     	;# 
   202  0716                     	;# 
   203  0717                     	;# 
   204  0718                     	;# 
   205  0719                     	;# 
   206  071A                     	;# 
   207  071B                     	;# 
   208  071C                     	;# 
   209  071D                     	;# 
   210  0796                     	;# 
   211  0797                     	;# 
   212  0798                     	;# 
   213  0799                     	;# 
   214  079A                     	;# 
   215  079B                     	;# 
   216  080C                     	;# 
   217  080D                     	;# 
   218  080E                     	;# 
   219  080F                     	;# 
   220  0810                     	;# 
   221  0811                     	;# 
   222  0812                     	;# 
   223  0813                     	;# 
   224  0814                     	;# 
   225  081A                     	;# 
   226  081A                     	;# 
   227  081B                     	;# 
   228  081C                     	;# 
   229  081C                     	;# 
   230  081D                     	;# 
   231  081E                     	;# 
   232  081F                     	;# 
   233  088C                     	;# 
   234  088D                     	;# 
   235  088E                     	;# 
   236  088F                     	;# 
   237  0890                     	;# 
   238  0891                     	;# 
   239  0892                     	;# 
   240  0893                     	;# 
   241  0895                     	;# 
   242  0896                     	;# 
   243  090C                     	;# 
   244  090E                     	;# 
   245  090F                     	;# 
   246  091F                     	;# 
   247  098F                     	;# 
   248  098F                     	;# 
   249  0990                     	;# 
   250  0991                     	;# 
   251  0992                     	;# 
   252  0993                     	;# 
   253  0994                     	;# 
   254  0995                     	;# 
   255  0996                     	;# 
   256  0997                     	;# 
   257  0A19                     	;# 
   258  0A19                     	;# 
   259  0A1A                     	;# 
   260  0A1A                     	;# 
   261  0A1B                     	;# 
   262  0A1B                     	;# 
   263  0A1B                     	;# 
   264  0A1C                     	;# 
   265  0A1C                     	;# 
   266  0A1D                     	;# 
   267  0A1D                     	;# 
   268  0A1E                     	;# 
   269  0A1E                     	;# 
   270  0A1F                     	;# 
   271  0A1F                     	;# 
   272  0A1F                     	;# 
   273  1E0F                     	;# 
   274  1E10                     	;# 
   275  1E11                     	;# 
   276  1E12                     	;# 
   277  1E13                     	;# 
   278  1E14                     	;# 
   279  1E15                     	;# 
   280  1E16                     	;# 
   281  1E17                     	;# 
   282  1E18                     	;# 
   283  1E19                     	;# 
   284  1E1A                     	;# 
   285  1E1B                     	;# 
   286  1E1C                     	;# 
   287  1E1D                     	;# 
   288  1E1E                     	;# 
   289  1E1F                     	;# 
   290  1E20                     	;# 
   291  1E21                     	;# 
   292  1E22                     	;# 
   293  1E23                     	;# 
   294  1E24                     	;# 
   295  1E25                     	;# 
   296  1E26                     	;# 
   297  1E27                     	;# 
   298  1E28                     	;# 
   299  1E29                     	;# 
   300  1E2A                     	;# 
   301  1E2B                     	;# 
   302  1E2C                     	;# 
   303  1E2D                     	;# 
   304  1E2E                     	;# 
   305  1E2F                     	;# 
   306  1E30                     	;# 
   307  1E31                     	;# 
   308  1E32                     	;# 
   309  1E33                     	;# 
   310  1E34                     	;# 
   311  1E35                     	;# 
   312  1E36                     	;# 
   313  1E37                     	;# 
   314  1E8F                     	;# 
   315  1E90                     	;# 
   316  1E91                     	;# 
   317  1E92                     	;# 
   318  1E93                     	;# 
   319  1E9C                     	;# 
   320  1EA1                     	;# 
   321  1EA2                     	;# 
   322  1EB1                     	;# 
   323  1EBB                     	;# 
   324  1EBC                     	;# 
   325  1EBD                     	;# 
   326  1EBE                     	;# 
   327  1EC3                     	;# 
   328  1EC5                     	;# 
   329  1EC6                     	;# 
   330  1EC7                     	;# 
   331  1EC8                     	;# 
   332  1EC9                     	;# 
   333  1ECA                     	;# 
   334  1ECB                     	;# 
   335  1ECC                     	;# 
   336  1ECD                     	;# 
   337  1ECE                     	;# 
   338  1F10                     	;# 
   339  1F11                     	;# 
   340  1F12                     	;# 
   341  1F13                     	;# 
   342  1F14                     	;# 
   343  1F15                     	;# 
   344  1F16                     	;# 
   345  1F17                     	;# 
   346  1F18                     	;# 
   347  1F19                     	;# 
   348  1F1A                     	;# 
   349  1F1B                     	;# 
   350  1F1C                     	;# 
   351  1F1D                     	;# 
   352  1F1E                     	;# 
   353  1F1F                     	;# 
   354  1F20                     	;# 
   355  1F21                     	;# 
   356  1F22                     	;# 
   357  1F23                     	;# 
   358  1F24                     	;# 
   359  1F25                     	;# 
   360  1F26                     	;# 
   361  1F27                     	;# 
   362  1F38                     	;# 
   363  1F39                     	;# 
   364  1F3A                     	;# 
   365  1F3B                     	;# 
   366  1F3C                     	;# 
   367  1F3D                     	;# 
   368  1F3E                     	;# 
   369  1F3F                     	;# 
   370  1F43                     	;# 
   371  1F44                     	;# 
   372  1F45                     	;# 
   373  1F46                     	;# 
   374  1F47                     	;# 
   375  1F48                     	;# 
   376  1F49                     	;# 
   377  1F4A                     	;# 
   378  1F4E                     	;# 
   379  1F4F                     	;# 
   380  1F50                     	;# 
   381  1F51                     	;# 
   382  1F52                     	;# 
   383  1F53                     	;# 
   384  1F54                     	;# 
   385  1F55                     	;# 
   386  1F65                     	;# 
   387  1F68                     	;# 
   388  1F69                     	;# 
   389  1F6A                     	;# 
   390  1F6B                     	;# 
   391  1FE4                     	;# 
   392  1FE5                     	;# 
   393  1FE6                     	;# 
   394  1FE7                     	;# 
   395  1FE8                     	;# 
   396  1FE8                     	;# 
   397  1FE9                     	;# 
   398  1FEA                     	;# 
   399  1FEA                     	;# 
   400  1FEB                     	;# 
   401  1FED                     	;# 
   402  1FEE                     	;# 
   403  1FEF                     	;# 
   404                           
   405                           	psect	stringtext1
   406  018E                     __pstringtext1:	
   407  018E                     _map:	
   408  018E  3400               	retlw	0
   409  018F  3400               	retlw	0
   410  0190  3400               	retlw	0
   411  0191  3401               	retlw	1
   412  0192  3401               	retlw	1
   413  0193  3400               	retlw	0
   414  0194  3400               	retlw	0
   415  0195  3400               	retlw	0
   416  0196  3400               	retlw	0
   417  0197  3401               	retlw	1
   418  0198  3401               	retlw	1
   419  0199  3401               	retlw	1
   420  019A  3401               	retlw	1
   421  019B  3400               	retlw	0
   422  019C  3401               	retlw	1
   423  019D  3401               	retlw	1
   424  019E  3400               	retlw	0
   425  019F  3400               	retlw	0
   426  01A0  3401               	retlw	1
   427  01A1  3400               	retlw	0
   428  01A2  3401               	retlw	1
   429  01A3  3401               	retlw	1
   430  01A4  3400               	retlw	0
   431  01A5  3400               	retlw	0
   432  01A6  3400               	retlw	0
   433  01A7  3400               	retlw	0
   434  01A8  3401               	retlw	1
   435  01A9  3400               	retlw	0
   436  01AA  3401               	retlw	1
   437  01AB  3400               	retlw	0
   438  01AC  3400               	retlw	0
   439  01AD  3401               	retlw	1
   440  01AE  3400               	retlw	0
   441  01AF  3401               	retlw	1
   442  01B0  3400               	retlw	0
   443  01B1  3400               	retlw	0
   444  01B2  3401               	retlw	1
   445  01B3  3400               	retlw	0
   446  01B4  3401               	retlw	1
   447  01B5  3401               	retlw	1
   448  01B6  3401               	retlw	1
   449  01B7  3400               	retlw	0
   450  01B8  3400               	retlw	0
   451  01B9  3400               	retlw	0
   452  01BA  3401               	retlw	1
   453  01BB  3400               	retlw	0
   454  01BC  3400               	retlw	0
   455  01BD  3401               	retlw	1
   456  01BE  3401               	retlw	1
   457  01BF  3400               	retlw	0
   458  01C0  3400               	retlw	0
   459  01C1  3400               	retlw	0
   460  01C2  3401               	retlw	1
   461  01C3  3400               	retlw	0
   462  01C4  3400               	retlw	0
   463  01C5  3400               	retlw	0
   464  01C6  3400               	retlw	0
   465  01C7  3400               	retlw	0
   466  01C8  3401               	retlw	1
   467  01C9  3401               	retlw	1
   468  01CA  3401               	retlw	1
   469  01CB  3400               	retlw	0
   470  01CC  3401               	retlw	1
   471  01CD  3401               	retlw	1
   472  01CE  3400               	retlw	0
   473  01CF  3400               	retlw	0
   474  01D0  3400               	retlw	0
   475  01D1  3400               	retlw	0
   476  01D2  3401               	retlw	1
   477  01D3  3400               	retlw	0
   478  01D4  3400               	retlw	0
   479  01D5  3400               	retlw	0
   480  01D6  3400               	retlw	0
   481  01D7  3400               	retlw	0
   482  01D8  3400               	retlw	0
   483  01D9  3400               	retlw	0
   484  01DA  3401               	retlw	1
   485  01DB  3400               	retlw	0
   486  01DC  3400               	retlw	0
   487  01DD  3401               	retlw	1
   488  01DE  3401               	retlw	1
   489  01DF  3401               	retlw	1
   490  01E0  3401               	retlw	1
   491  01E1  3401               	retlw	1
   492  01E2  3401               	retlw	1
   493  01E3  3401               	retlw	1
   494  01E4  3401               	retlw	1
   495  01E5  3401               	retlw	1
   496  01E6                     __end_of_map:	
   497                           
   498                           	psect	nvCOMMON
   499  0079                     __pnvCOMMON:	
   500  0079                     _digit:	
   501  0079                     	ds	1
   502  000C                     _PORTA	set	12
   503  000B                     _INTCONbits	set	11
   504  0012                     _TRISA	set	18
   505  0019                     _LATBbits	set	25
   506  0013                     _TRISBbits	set	19
   507  001A                     _LATC	set	26
   508  0014                     _TRISC	set	20
   509  000D                     _PORTBbits	set	13
   510  001A                     _LATCbits	set	26
   511  059F                     _T0CON1bits	set	1439
   512  059E                     _T0CON0bits	set	1438
   513  0716                     _PIE0bits	set	1814
   514  070C                     _PIR0bits	set	1804
   515  0893                     _OSCFRQ	set	2195
   516  088D                     _OSCCON1	set	2189
   517  1F38                     _ANSELA	set	7992
   518  1F43                     _ANSELB	set	8003
   519  1F4E                     _ANSELC	set	8014
   520                           
   521                           ; #config settings
   522  0000                     
   523                           	psect	cinit
   524  0071                     start_initialization:	
   525  0071                     __initialization:	
   526                           
   527                           ; Clear objects allocated to COMMON
   528  0071  01F5               	clrf	__pbssCOMMON& (0+127)
   529  0072  01F6               	clrf	(__pbssCOMMON+1)& (0+127)
   530  0073  01F7               	clrf	(__pbssCOMMON+2)& (0+127)
   531  0074  01F8               	clrf	(__pbssCOMMON+3)& (0+127)
   532                           
   533                           ; Clear objects allocated to BANK0
   534  0075  0140               	movlb	0	; select bank0
   535  0076  01AB               	clrf	__pbssBANK0& (0+127)
   536  0077  01AC               	clrf	(__pbssBANK0+1)& (0+127)
   537  0078                     end_of_initialization:	
   538                           ;End of C runtime variable initialization code
   539                           
   540  0078                     __end_of__initialization:	
   541  0078  107E               	bcf	int$flags,0	;clear compiler interrupt flag (level 1)
   542  0079  0140               	movlb	0
   543  007A  3181  2925         	ljmp	_main	;jump to C main() function
   544                           
   545                           	psect	bssCOMMON
   546  0075                     __pbssCOMMON:	
   547  0075                     isr@blinkTime:	
   548  0075                     	ds	1
   549  0076                     isr@btnTime:	
   550  0076                     	ds	1
   551  0077                     isr@state:	
   552  0077                     	ds	1
   553  0078                     _tick:	
   554  0078                     	ds	1
   555                           
   556                           	psect	bssBANK0
   557  002B                     __pbssBANK0:	
   558  002B                     _alarms:	
   559  002B                     	ds	1
   560  002C                     _btn:	
   561  002C                     	ds	1
   562                           
   563                           	psect	cstackCOMMON
   564  0070                     __pcstackCOMMON:	
   565  0070                     ?_showDigit:	
   566  0070                     ??_showDigit:	
   567                           ; 1 bytes @ 0x0
   568                           
   569  0070                     ?_isr:	
   570                           ; 1 bytes @ 0x0
   571                           
   572  0070                     ?_initTimer0:	
   573                           ; 1 bytes @ 0x0
   574                           
   575  0070                     ?_initPorts:	
   576                           ; 1 bytes @ 0x0
   577                           
   578  0070                     ?_initInt:	
   579                           ; 1 bytes @ 0x0
   580                           
   581  0070                     ?_initOsc:	
   582                           ; 1 bytes @ 0x0
   583                           
   584  0070                     ?_init:	
   585                           ; 1 bytes @ 0x0
   586                           
   587  0070                     ?_buzzer:	
   588                           ; 1 bytes @ 0x0
   589                           
   590  0070                     ?_queryInputs:	
   591                           ; 1 bytes @ 0x0
   592                           
   593  0070                     ?_main:	
   594                           ; 1 bytes @ 0x0
   595                           
   596                           
   597                           ; 2 bytes @ 0x0
   598  0070                     	ds	3
   599  0073                     ??_isr:	
   600                           
   601                           ; 1 bytes @ 0x3
   602  0073                     	ds	2
   603                           
   604                           	psect	cstackBANK0
   605  0020                     __pcstackBANK0:	
   606  0020                     ??_initTimer0:	
   607  0020                     ??_initPorts:	
   608                           ; 1 bytes @ 0x0
   609                           
   610  0020                     ??_initInt:	
   611                           ; 1 bytes @ 0x0
   612                           
   613  0020                     ??_initOsc:	
   614                           ; 1 bytes @ 0x0
   615                           
   616  0020                     ??_init:	
   617                           ; 1 bytes @ 0x0
   618                           
   619  0020                     ??_buzzer:	
   620                           ; 1 bytes @ 0x0
   621                           
   622  0020                     ??_queryInputs:	
   623                           ; 1 bytes @ 0x0
   624                           
   625                           
   626                           ; 1 bytes @ 0x0
   627  0020                     	ds	1
   628  0021                     buzzer@n:	
   629                           
   630                           ; 1 bytes @ 0x1
   631  0021                     	ds	5
   632  0026                     queryInputs@n:	
   633                           
   634                           ; 1 bytes @ 0x6
   635  0026                     	ds	1
   636  0027                     ??_main:	
   637                           
   638                           ; 1 bytes @ 0x7
   639  0027                     	ds	2
   640  0029                     main@n:	
   641                           
   642                           ; 1 bytes @ 0x9
   643  0029                     	ds	1
   644  002A                     main@show:	
   645                           
   646                           ; 1 bytes @ 0xA
   647  002A                     	ds	1
   648                           
   649                           	psect	maintext
   650  0125                     __pmaintext:	
   651 ;;
   652 ;;Main: autosize = 0, tempsize = 2, incstack = 0, save=0
   653 ;;
   654 ;; *************** function _main *****************
   655 ;; Defined at:
   656 ;;		line 176 in file "main.c"
   657 ;; Parameters:    Size  Location     Type
   658 ;;		None
   659 ;; Auto vars:     Size  Location     Type
   660 ;;  show            1   10[BANK0 ] unsigned char 
   661 ;;  n               1    9[BANK0 ] unsigned char 
   662 ;; Return value:  Size  Location     Type
   663 ;;                  2  115[None  ] int 
   664 ;; Registers used:
   665 ;;		wreg, status,2, status,0, pclath, cstack
   666 ;; Tracked objects:
   667 ;;		On entry : B3F/0
   668 ;;		On exit  : 0/0
   669 ;;		Unchanged: 0/0
   670 ;; Data sizes:     COMMON   BANK0   BANK1   BANK2   BANK3   BANK4   BANK5   BANK6   BANK7   BANK8   BANK9  BANK10  BANK1
      +1  BANK12
   671 ;;      Params:         0       0       0       0       0       0       0       0       0       0       0       0       
      +0       0
   672 ;;      Locals:         0       2       0       0       0       0       0       0       0       0       0       0       
      +0       0
   673 ;;      Temps:          0       2       0       0       0       0       0       0       0       0       0       0       
      +0       0
   674 ;;      Totals:         0       4       0       0       0       0       0       0       0       0       0       0       
      +0       0
   675 ;;Total ram usage:        4 bytes
   676 ;; Hardware stack levels required when called:    4
   677 ;; This function calls:
   678 ;;		_buzzer
   679 ;;		_init
   680 ;;		_queryInputs
   681 ;; This function is called by:
   682 ;;		Startup code after reset
   683 ;; This function uses a non-reentrant model
   684 ;;
   685                           
   686                           
   687                           ;psect for function _main
   688  0125                     _main:	
   689                           
   690                           ;main.c: 177:     uint8_t n, show;;main.c: 178:     init();
   691                           
   692                           ;incstack = 0
   693                           ; Regs used in _main: [wreg+status,2+status,0+pclath+cstack]
   694  0125  3182  226B  3181   	fcall	_init
   695                           
   696                           ;main.c: 180:     alarms = 0;
   697  0128  0140               	movlb	0	; select bank0
   698  0129  01AB               	clrf	_alarms
   699                           
   700                           ;main.c: 181:     digit = 10;
   701  012A  300A               	movlw	10
   702  012B  00A7               	movwf	??_main
   703  012C  0827               	movf	??_main,w
   704  012D  00F9               	movwf	_digit	;volatile
   705  012E  295B               	goto	l1179
   706  012F                     l1183:	
   707                           
   708                           ;main.c: 188:             buzzer();
   709  012F  3182  2226  3181   	fcall	_buzzer
   710                           
   711                           ;main.c: 189:             if (btn == 1) {
   712  0132  0140               	movlb	0	; select bank0
   713  0133  032C               	decf	_btn,w	;volatile
   714  0134  1D03               	btfss	3,2
   715  0135  2951               	goto	l1195
   716                           
   717                           ;main.c: 190:                 if (++show > 7) show = 0;
   718  0136  3001               	movlw	1
   719  0137  00A7               	movwf	??_main
   720  0138  0827               	movf	??_main,w
   721  0139  07AA               	addwf	main@show,f
   722  013A  3008               	movlw	8
   723  013B  022A               	subwf	main@show,w
   724  013C  1C03               	skipc
   725  013D  2944               	goto	l120
   726  013E  01AA               	clrf	main@show
   727  013F  2944               	goto	l120
   728  0140                     l1191:	
   729  0140  3001               	movlw	1
   730  0141  00A7               	movwf	??_main
   731  0142  0827               	movf	??_main,w
   732  0143  07AA               	addwf	main@show,f
   733  0144                     l120:	
   734  0144  3001               	movlw	1
   735  0145  00A7               	movwf	??_main
   736  0146  0A2A               	incf	main@show,w
   737  0147  2949               	goto	u694
   738  0148                     u695:	
   739  0148  35A7               	lslf	??_main,f
   740  0149                     u694:	
   741  0149  0B89               	decfsz	9,f
   742  014A  2948               	goto	u695
   743  014B  0827               	movf	??_main,w
   744  014C  052B               	andwf	_alarms,w
   745  014D  1903               	btfsc	3,2
   746  014E  2940               	goto	l1191
   747                           
   748                           ;main.c: 192:                 digit = show;
   749  014F  082A               	movf	main@show,w
   750  0150  2957               	goto	L1
   751  0151                     l1195:	
   752                           ;main.c: 193:             } else if (btn > 1) {
   753                           
   754  0151  3002               	movlw	2
   755  0152  022C               	subwf	_btn,w	;volatile
   756  0153  1C03               	skipc
   757  0154  295A               	goto	l1201
   758                           
   759                           ;main.c: 194:                 alarms = 0;
   760  0155  01AB               	clrf	_alarms
   761                           
   762                           ;main.c: 195:                 digit = 10;
   763  0156  300A               	movlw	10
   764  0157                     L1:	
   765  0157  00A7               	movwf	??_main
   766  0158  0827               	movf	??_main,w
   767  0159  00F9               	movwf	_digit	;volatile
   768  015A                     l1201:	
   769                           
   770                           ;main.c: 197:             btn = 0;
   771  015A  01AC               	clrf	_btn	;volatile
   772  015B                     l1179:	
   773                           ;main.c: 198:         } else {
   774                           
   775                           
   776                           ;main.c: 185:         queryInputs();
   777  015B  3181  21E6  3181   	fcall	_queryInputs
   778                           
   779                           ;main.c: 187:         if (alarms) {
   780  015E  0140               	movlb	0	; select bank0
   781  015F  082B               	movf	_alarms,w
   782  0160  1D03               	btfss	3,2
   783  0161  292F               	goto	l1183
   784                           
   785                           ;main.c: 199:             if (btn > 1) {
   786  0162  3002               	movlw	2
   787  0163  022C               	subwf	_btn,w	;volatile
   788  0164  1C03               	skipc
   789  0165  295A               	goto	l1201
   790                           
   791                           ;main.c: 200:                 INTCONbits.GIE = 0;
   792  0166  138B               	bcf	11,7	;volatile
   793                           
   794                           ;main.c: 201:                 LATBbits.LATB0 = 1;
   795  0167  1419               	bsf	25,0	;volatile
   796                           
   797                           ;main.c: 202:                 for(n = 0; n <=7; n++) {
   798  0168  01A9               	clrf	main@n
   799  0169                     l1213:	
   800                           
   801                           ;main.c: 203:                     LATC &= ~(1<<n);
   802  0169  3001               	movlw	1
   803  016A  00A7               	movwf	??_main
   804  016B  0A29               	incf	main@n,w
   805  016C  296E               	goto	u734
   806  016D                     u735:	
   807  016D  35A7               	lslf	??_main,f
   808  016E                     u734:	
   809  016E  0B89               	decfsz	9,f
   810  016F  296D               	goto	u735
   811  0170  0827               	movf	??_main,w
   812  0171  3AFF               	xorlw	255
   813  0172  00A8               	movwf	??_main+1
   814  0173  0828               	movf	??_main+1,w
   815  0174  059A               	andwf	26,f	;volatile
   816                           
   817                           ;main.c: 204:                     _delay((unsigned long)((250)*(16000000L/4000.0)));
   818  0175  3006               	movlw	6
   819  0176  0140               	movlb	0	; select bank0
   820  0177  00A8               	movwf	??_main+1
   821  0178  3013               	movlw	19
   822  0179  00A7               	movwf	??_main
   823  017A  30AD               	movlw	173
   824  017B                     u757:	
   825  017B  0B89               	decfsz	9,f
   826  017C  297B               	goto	u757
   827  017D  0BA7               	decfsz	??_main,f
   828  017E  297B               	goto	u757
   829  017F  0BA8               	decfsz	??_main+1,f
   830  0180  297B               	goto	u757
   831  0181  3200               	nop2
   832                           
   833                           ;main.c: 205:                 }
   834  0182  3001               	movlw	1
   835  0183  0140               	movlb	0	; select bank0
   836  0184  00A7               	movwf	??_main
   837  0185  0827               	movf	??_main,w
   838  0186  07A9               	addwf	main@n,f
   839  0187  3008               	movlw	8
   840  0188  0229               	subwf	main@n,w
   841  0189  1C03               	skipc
   842  018A  2969               	goto	l1213
   843                           
   844                           ;main.c: 206:                 LATBbits.LATB0 = 0;
   845  018B  1019               	bcf	25,0	;volatile
   846                           
   847                           ;main.c: 207:                 INTCONbits.GIE = 1;
   848  018C  178B               	bsf	11,7	;volatile
   849  018D  295A               	goto	l1201
   850  018E                     __end_of_main:	
   851                           
   852                           	psect	text1
   853  01E6                     __ptext1:	
   854 ;; *************** function _queryInputs *****************
   855 ;; Defined at:
   856 ;;		line 156 in file "main.c"
   857 ;; Parameters:    Size  Location     Type
   858 ;;		None
   859 ;; Auto vars:     Size  Location     Type
   860 ;;  n               1    6[BANK0 ] unsigned char 
   861 ;; Return value:  Size  Location     Type
   862 ;;                  1    wreg      void 
   863 ;; Registers used:
   864 ;;		wreg, status,2, status,0
   865 ;; Tracked objects:
   866 ;;		On entry : 0/0
   867 ;;		On exit  : 0/0
   868 ;;		Unchanged: 0/0
   869 ;; Data sizes:     COMMON   BANK0   BANK1   BANK2   BANK3   BANK4   BANK5   BANK6   BANK7   BANK8   BANK9  BANK10  BANK1
      +1  BANK12
   870 ;;      Params:         0       0       0       0       0       0       0       0       0       0       0       0       
      +0       0
   871 ;;      Locals:         0       1       0       0       0       0       0       0       0       0       0       0       
      +0       0
   872 ;;      Temps:          0       6       0       0       0       0       0       0       0       0       0       0       
      +0       0
   873 ;;      Totals:         0       7       0       0       0       0       0       0       0       0       0       0       
      +0       0
   874 ;;Total ram usage:        7 bytes
   875 ;; Hardware stack levels used:    1
   876 ;; Hardware stack levels required when called:    2
   877 ;; This function calls:
   878 ;;		Nothing
   879 ;; This function is called by:
   880 ;;		_main
   881 ;; This function uses a non-reentrant model
   882 ;;
   883                           
   884                           
   885                           ;psect for function _queryInputs
   886  01E6                     _queryInputs:	
   887                           
   888                           ;main.c: 157:     uint8_t n;;main.c: 159:     for(n = 0; n < 8; n++) {
   889                           
   890                           ;incstack = 0
   891                           ; Regs used in _queryInputs: [wreg+status,2+status,0]
   892  01E6  0140               	movlb	0	; select bank0
   893  01E7  01A6               	clrf	queryInputs@n
   894  01E8                     l1153:	
   895                           
   896                           ;main.c: 160:         if (~PORTA & (1<<n)) {
   897  01E8  090C               	comf	12,w	;volatile
   898  01E9  00A0               	movwf	??_queryInputs
   899  01EA  01A1               	clrf	??_queryInputs+1
   900  01EB  09A1               	comf	??_queryInputs+1,f
   901  01EC  3001               	movlw	1
   902  01ED  00A2               	movwf	??_queryInputs+2
   903  01EE  3000               	movlw	0
   904  01EF  00A3               	movwf	??_queryInputs+3
   905  01F0  0A26               	incf	queryInputs@n,w
   906  01F1  29F4               	goto	u604
   907  01F2                     u605:	
   908  01F2  35A2               	lslf	??_queryInputs+2,f
   909  01F3  0DA3               	rlf	??_queryInputs+3,f
   910  01F4                     u604:	
   911  01F4  0B89               	decfsz	9,f
   912  01F5  29F2               	goto	u605
   913  01F6  0820               	movf	??_queryInputs,w
   914  01F7  0522               	andwf	??_queryInputs+2,w
   915  01F8  00A4               	movwf	??_queryInputs+4
   916  01F9  0821               	movf	??_queryInputs+1,w
   917  01FA  0523               	andwf	??_queryInputs+3,w
   918  01FB  00A5               	movwf	??_queryInputs+5
   919  01FC  0824               	movf	??_queryInputs+4,w
   920  01FD  0425               	iorwf	??_queryInputs+5,w
   921  01FE  1903               	btfsc	3,2
   922  01FF  2A1D               	goto	l1171
   923                           
   924                           ;main.c: 161:             if (n == 6) {
   925  0200  3006               	movlw	6
   926  0201  0626               	xorwf	queryInputs@n,w
   927  0202  1D03               	btfss	3,2
   928  0203  2A07               	goto	l1161
   929                           
   930                           ;main.c: 162:                 alarms |= (1<<7);
   931  0204  17AB               	bsf	_alarms,7
   932                           
   933                           ;main.c: 163:                 digit = 7;
   934  0205  3007               	movlw	7
   935  0206  2A1A               	goto	L2
   936  0207                     l1161:	
   937                           ;main.c: 164:             } else if (n == 7) {
   938                           
   939  0207  3007               	movlw	7
   940  0208  0626               	xorwf	queryInputs@n,w
   941  0209  1D03               	btfss	3,2
   942  020A  2A0E               	goto	l1167
   943                           
   944                           ;main.c: 165:                 alarms |= (1<<6);
   945  020B  172B               	bsf	_alarms,6
   946                           
   947                           ;main.c: 166:                 digit = 6;
   948  020C  3006               	movlw	6
   949  020D  2A1A               	goto	L2
   950  020E                     l1167:	
   951                           ;main.c: 167:             } else {
   952                           
   953                           
   954                           ;main.c: 168:                 alarms |= (1<<n);
   955  020E  3001               	movlw	1
   956  020F  00A0               	movwf	??_queryInputs
   957  0210  0A26               	incf	queryInputs@n,w
   958  0211  2A13               	goto	u644
   959  0212                     u645:	
   960  0212  35A0               	lslf	??_queryInputs,f
   961  0213                     u644:	
   962  0213  0B89               	decfsz	9,f
   963  0214  2A12               	goto	u645
   964  0215  0820               	movf	??_queryInputs,w
   965  0216  00A1               	movwf	??_queryInputs+1
   966  0217  0821               	movf	??_queryInputs+1,w
   967  0218  04AB               	iorwf	_alarms,f
   968                           
   969                           ;main.c: 169:                 digit = n;
   970  0219  0826               	movf	queryInputs@n,w
   971  021A                     L2:	
   972  021A  00A0               	movwf	??_queryInputs
   973  021B  0820               	movf	??_queryInputs,w
   974  021C  00F9               	movwf	_digit	;volatile
   975  021D                     l1171:	
   976                           
   977                           ;main.c: 172:     }
   978  021D  3001               	movlw	1
   979  021E  00A0               	movwf	??_queryInputs
   980  021F  0820               	movf	??_queryInputs,w
   981  0220  07A6               	addwf	queryInputs@n,f
   982  0221  3008               	movlw	8
   983  0222  0226               	subwf	queryInputs@n,w
   984  0223  1803               	btfsc	3,0
   985  0224  0008               	return
   986  0225  29E8               	goto	l1153
   987  0226                     __end_of_queryInputs:	
   988                           
   989                           	psect	text2
   990  026B                     __ptext2:	
   991 ;; *************** function _init *****************
   992 ;; Defined at:
   993 ;;		line 139 in file "main.c"
   994 ;; Parameters:    Size  Location     Type
   995 ;;		None
   996 ;; Auto vars:     Size  Location     Type
   997 ;;		None
   998 ;; Return value:  Size  Location     Type
   999 ;;                  1    wreg      void 
  1000 ;; Registers used:
  1001 ;;		wreg, status,2, status,0, pclath, cstack
  1002 ;; Tracked objects:
  1003 ;;		On entry : 0/0
  1004 ;;		On exit  : 0/0
  1005 ;;		Unchanged: 0/0
  1006 ;; Data sizes:     COMMON   BANK0   BANK1   BANK2   BANK3   BANK4   BANK5   BANK6   BANK7   BANK8   BANK9  BANK10  BANK1
      +1  BANK12
  1007 ;;      Params:         0       0       0       0       0       0       0       0       0       0       0       0       
      +0       0
  1008 ;;      Locals:         0       0       0       0       0       0       0       0       0       0       0       0       
      +0       0
  1009 ;;      Temps:          0       0       0       0       0       0       0       0       0       0       0       0       
      +0       0
  1010 ;;      Totals:         0       0       0       0       0       0       0       0       0       0       0       0       
      +0       0
  1011 ;;Total ram usage:        0 bytes
  1012 ;; Hardware stack levels used:    1
  1013 ;; Hardware stack levels required when called:    3
  1014 ;; This function calls:
  1015 ;;		_initInt
  1016 ;;		_initOsc
  1017 ;;		_initPorts
  1018 ;;		_initTimer0
  1019 ;; This function is called by:
  1020 ;;		_main
  1021 ;; This function uses a non-reentrant model
  1022 ;;
  1023                           
  1024                           
  1025                           ;psect for function _init
  1026  026B                     _init:	
  1027                           
  1028                           ;main.c: 140:     initOsc();
  1029                           
  1030                           ;incstack = 0
  1031                           ; Regs used in _init: [wreg+status,2+status,0+pclath+cstack]
  1032  026B  3182  2277  3182   	fcall	_initOsc
  1033                           
  1034                           ;main.c: 141:     initInt();
  1035  026E  3182  227D  3182   	fcall	_initInt
  1036                           
  1037                           ;main.c: 142:     initPorts();
  1038  0271  3182  2247  3182   	fcall	_initPorts
  1039                           
  1040                           ;main.c: 143:     initTimer0();
  1041  0274  3182  225D         	fcall	_initTimer0
  1042  0276  0008               	return
  1043  0277                     __end_of_init:	
  1044                           
  1045                           	psect	text3
  1046  025D                     __ptext3:	
  1047 ;; *************** function _initTimer0 *****************
  1048 ;; Defined at:
  1049 ;;		line 101 in file "main.c"
  1050 ;; Parameters:    Size  Location     Type
  1051 ;;		None
  1052 ;; Auto vars:     Size  Location     Type
  1053 ;;		None
  1054 ;; Return value:  Size  Location     Type
  1055 ;;                  1    wreg      void 
  1056 ;; Registers used:
  1057 ;;		wreg, status,2, status,0
  1058 ;; Tracked objects:
  1059 ;;		On entry : 0/0
  1060 ;;		On exit  : 0/0
  1061 ;;		Unchanged: 0/0
  1062 ;; Data sizes:     COMMON   BANK0   BANK1   BANK2   BANK3   BANK4   BANK5   BANK6   BANK7   BANK8   BANK9  BANK10  BANK1
      +1  BANK12
  1063 ;;      Params:         0       0       0       0       0       0       0       0       0       0       0       0       
      +0       0
  1064 ;;      Locals:         0       0       0       0       0       0       0       0       0       0       0       0       
      +0       0
  1065 ;;      Temps:          0       0       0       0       0       0       0       0       0       0       0       0       
      +0       0
  1066 ;;      Totals:         0       0       0       0       0       0       0       0       0       0       0       0       
      +0       0
  1067 ;;Total ram usage:        0 bytes
  1068 ;; Hardware stack levels used:    1
  1069 ;; Hardware stack levels required when called:    2
  1070 ;; This function calls:
  1071 ;;		Nothing
  1072 ;; This function is called by:
  1073 ;;		_init
  1074 ;; This function uses a non-reentrant model
  1075 ;;
  1076                           
  1077                           
  1078                           ;psect for function _initTimer0
  1079  025D                     _initTimer0:	
  1080                           
  1081                           ;main.c: 102:     T0CON0bits.T016BIT = 0;
  1082                           
  1083                           ;incstack = 0
  1084                           ; Regs used in _initTimer0: [wreg+status,2+status,0]
  1085  025D  014B               	movlb	11	; select bank11
  1086  025E  121E               	bcf	30,4	;volatile
  1087                           
  1088                           ;main.c: 103:     T0CON0bits.T0OUTPS = 0b0000;
  1089  025F  30F0               	movlw	-16
  1090  0260  059E               	andwf	30,f	;volatile
  1091                           
  1092                           ;main.c: 104:     T0CON1bits.T0CS = 0b010;
  1093  0261  081F               	movf	31,w	;volatile
  1094  0262  391F               	andlw	-225
  1095  0263  3840               	iorlw	64
  1096  0264  009F               	movwf	31	;volatile
  1097                           
  1098                           ;main.c: 105:     T0CON1bits.T0CKPS = 0b0000;
  1099  0265  30F0               	movlw	-16
  1100  0266  059F               	andwf	31,f	;volatile
  1101                           
  1102                           ;main.c: 106:     T0CON0bits.T0EN = 1;
  1103  0267  179E               	bsf	30,7	;volatile
  1104                           
  1105                           ;main.c: 107:     PIE0bits.TMR0IE = 1;
  1106  0268  014E               	movlb	14	; select bank14
  1107  0269  1696               	bsf	22,5	;volatile
  1108  026A  0008               	return
  1109  026B                     __end_of_initTimer0:	
  1110                           
  1111                           	psect	text4
  1112  0247                     __ptext4:	
  1113 ;; *************** function _initPorts *****************
  1114 ;; Defined at:
  1115 ;;		line 110 in file "main.c"
  1116 ;; Parameters:    Size  Location     Type
  1117 ;;		None
  1118 ;; Auto vars:     Size  Location     Type
  1119 ;;		None
  1120 ;; Return value:  Size  Location     Type
  1121 ;;                  1    wreg      void 
  1122 ;; Registers used:
  1123 ;;		wreg, status,2
  1124 ;; Tracked objects:
  1125 ;;		On entry : 0/0
  1126 ;;		On exit  : 0/0
  1127 ;;		Unchanged: 0/0
  1128 ;; Data sizes:     COMMON   BANK0   BANK1   BANK2   BANK3   BANK4   BANK5   BANK6   BANK7   BANK8   BANK9  BANK10  BANK1
      +1  BANK12
  1129 ;;      Params:         0       0       0       0       0       0       0       0       0       0       0       0       
      +0       0
  1130 ;;      Locals:         0       0       0       0       0       0       0       0       0       0       0       0       
      +0       0
  1131 ;;      Temps:          0       0       0       0       0       0       0       0       0       0       0       0       
      +0       0
  1132 ;;      Totals:         0       0       0       0       0       0       0       0       0       0       0       0       
      +0       0
  1133 ;;Total ram usage:        0 bytes
  1134 ;; Hardware stack levels used:    1
  1135 ;; Hardware stack levels required when called:    2
  1136 ;; This function calls:
  1137 ;;		Nothing
  1138 ;; This function is called by:
  1139 ;;		_init
  1140 ;; This function uses a non-reentrant model
  1141 ;;
  1142                           
  1143                           
  1144                           ;psect for function _initPorts
  1145  0247                     _initPorts:	
  1146                           
  1147                           ;main.c: 111:     ANSELC = 0;
  1148                           
  1149                           ;incstack = 0
  1150                           ; Regs used in _initPorts: [wreg+status,2]
  1151  0247  017E               	movlb	62	; select bank62
  1152  0248  01CE               	clrf	78	;volatile
  1153                           
  1154                           ;main.c: 112:     TRISC = 0;
  1155  0249  0140               	movlb	0	; select bank0
  1156  024A  0194               	clrf	20	;volatile
  1157                           
  1158                           ;main.c: 113:     LATC = 0xFF;
  1159  024B  30FF               	movlw	255
  1160  024C  009A               	movwf	26	;volatile
  1161                           
  1162                           ;main.c: 115:     ANSELB = 0;
  1163  024D  017E               	movlb	62	; select bank62
  1164  024E  01C3               	clrf	67	;volatile
  1165                           
  1166                           ;main.c: 116:     TRISBbits.TRISB0 = 0;
  1167  024F  0140               	movlb	0	; select bank0
  1168  0250  1013               	bcf	19,0	;volatile
  1169                           
  1170                           ;main.c: 117:     LATBbits.LATB0 = 0;
  1171  0251  1019               	bcf	25,0	;volatile
  1172                           
  1173                           ;main.c: 119:     TRISBbits.TRISB1 = 1;
  1174  0252  1493               	bsf	19,1	;volatile
  1175                           
  1176                           ;main.c: 120:     TRISBbits.TRISB3 = 0;
  1177  0253  1193               	bcf	19,3	;volatile
  1178                           
  1179                           ;main.c: 121:     LATBbits.LATB3 = 0;
  1180  0254  1199               	bcf	25,3	;volatile
  1181                           
  1182                           ;main.c: 122:     TRISBbits.TRISB5 = 0;
  1183  0255  1293               	bcf	19,5	;volatile
  1184                           
  1185                           ;main.c: 123:     LATBbits.LATB5 = 0;
  1186  0256  1299               	bcf	25,5	;volatile
  1187                           
  1188                           ;main.c: 125:     ANSELA = 0;
  1189  0257  017E               	movlb	62	; select bank62
  1190  0258  01B8               	clrf	56	;volatile
  1191                           
  1192                           ;main.c: 126:     TRISA = 0xFF;
  1193  0259  30FF               	movlw	255
  1194  025A  0140               	movlb	0	; select bank0
  1195  025B  0092               	movwf	18	;volatile
  1196  025C  0008               	return
  1197  025D                     __end_of_initPorts:	
  1198                           
  1199                           	psect	text5
  1200  0277                     __ptext5:	
  1201 ;; *************** function _initOsc *****************
  1202 ;; Defined at:
  1203 ;;		line 134 in file "main.c"
  1204 ;; Parameters:    Size  Location     Type
  1205 ;;		None
  1206 ;; Auto vars:     Size  Location     Type
  1207 ;;		None
  1208 ;; Return value:  Size  Location     Type
  1209 ;;                  1    wreg      void 
  1210 ;; Registers used:
  1211 ;;		wreg
  1212 ;; Tracked objects:
  1213 ;;		On entry : 0/0
  1214 ;;		On exit  : 0/0
  1215 ;;		Unchanged: 0/0
  1216 ;; Data sizes:     COMMON   BANK0   BANK1   BANK2   BANK3   BANK4   BANK5   BANK6   BANK7   BANK8   BANK9  BANK10  BANK1
      +1  BANK12
  1217 ;;      Params:         0       0       0       0       0       0       0       0       0       0       0       0       
      +0       0
  1218 ;;      Locals:         0       0       0       0       0       0       0       0       0       0       0       0       
      +0       0
  1219 ;;      Temps:          0       0       0       0       0       0       0       0       0       0       0       0       
      +0       0
  1220 ;;      Totals:         0       0       0       0       0       0       0       0       0       0       0       0       
      +0       0
  1221 ;;Total ram usage:        0 bytes
  1222 ;; Hardware stack levels used:    1
  1223 ;; Hardware stack levels required when called:    2
  1224 ;; This function calls:
  1225 ;;		Nothing
  1226 ;; This function is called by:
  1227 ;;		_init
  1228 ;; This function uses a non-reentrant model
  1229 ;;
  1230                           
  1231                           
  1232                           ;psect for function _initOsc
  1233  0277                     _initOsc:	
  1234                           
  1235                           ;main.c: 135:     OSCCON1 = 0x60;
  1236                           
  1237                           ;incstack = 0
  1238                           ; Regs used in _initOsc: [wreg]
  1239  0277  3060               	movlw	96
  1240  0278  0151               	movlb	17	; select bank17
  1241  0279  008D               	movwf	13	;volatile
  1242                           
  1243                           ;main.c: 136:     OSCFRQ = 0x05;
  1244  027A  3005               	movlw	5
  1245  027B  0093               	movwf	19	;volatile
  1246  027C  0008               	return
  1247  027D                     __end_of_initOsc:	
  1248                           
  1249                           	psect	text6
  1250  027D                     __ptext6:	
  1251 ;; *************** function _initInt *****************
  1252 ;; Defined at:
  1253 ;;		line 129 in file "main.c"
  1254 ;; Parameters:    Size  Location     Type
  1255 ;;		None
  1256 ;; Auto vars:     Size  Location     Type
  1257 ;;		None
  1258 ;; Return value:  Size  Location     Type
  1259 ;;                  1    wreg      void 
  1260 ;; Registers used:
  1261 ;;		None
  1262 ;; Tracked objects:
  1263 ;;		On entry : 0/0
  1264 ;;		On exit  : 0/0
  1265 ;;		Unchanged: 0/0
  1266 ;; Data sizes:     COMMON   BANK0   BANK1   BANK2   BANK3   BANK4   BANK5   BANK6   BANK7   BANK8   BANK9  BANK10  BANK1
      +1  BANK12
  1267 ;;      Params:         0       0       0       0       0       0       0       0       0       0       0       0       
      +0       0
  1268 ;;      Locals:         0       0       0       0       0       0       0       0       0       0       0       0       
      +0       0
  1269 ;;      Temps:          0       0       0       0       0       0       0       0       0       0       0       0       
      +0       0
  1270 ;;      Totals:         0       0       0       0       0       0       0       0       0       0       0       0       
      +0       0
  1271 ;;Total ram usage:        0 bytes
  1272 ;; Hardware stack levels used:    1
  1273 ;; Hardware stack levels required when called:    2
  1274 ;; This function calls:
  1275 ;;		Nothing
  1276 ;; This function is called by:
  1277 ;;		_init
  1278 ;; This function uses a non-reentrant model
  1279 ;;
  1280                           
  1281                           
  1282                           ;psect for function _initInt
  1283  027D                     _initInt:	
  1284                           
  1285                           ;main.c: 130:     INTCONbits.GIE = 1;
  1286                           
  1287                           ;incstack = 0
  1288                           ; Regs used in _initInt: []
  1289  027D  178B               	bsf	11,7	;volatile
  1290  027E  0008               	return
  1291  027F                     __end_of_initInt:	
  1292                           
  1293                           	psect	text7
  1294  0226                     __ptext7:	
  1295 ;; *************** function _buzzer *****************
  1296 ;; Defined at:
  1297 ;;		line 146 in file "main.c"
  1298 ;; Parameters:    Size  Location     Type
  1299 ;;		None
  1300 ;; Auto vars:     Size  Location     Type
  1301 ;;  n               1    1[BANK0 ] unsigned char 
  1302 ;; Return value:  Size  Location     Type
  1303 ;;                  1    wreg      void 
  1304 ;; Registers used:
  1305 ;;		wreg, status,2, status,0
  1306 ;; Tracked objects:
  1307 ;;		On entry : 0/0
  1308 ;;		On exit  : 0/0
  1309 ;;		Unchanged: 0/0
  1310 ;; Data sizes:     COMMON   BANK0   BANK1   BANK2   BANK3   BANK4   BANK5   BANK6   BANK7   BANK8   BANK9  BANK10  BANK1
      +1  BANK12
  1311 ;;      Params:         0       0       0       0       0       0       0       0       0       0       0       0       
      +0       0
  1312 ;;      Locals:         0       1       0       0       0       0       0       0       0       0       0       0       
      +0       0
  1313 ;;      Temps:          0       1       0       0       0       0       0       0       0       0       0       0       
      +0       0
  1314 ;;      Totals:         0       2       0       0       0       0       0       0       0       0       0       0       
      +0       0
  1315 ;;Total ram usage:        2 bytes
  1316 ;; Hardware stack levels used:    1
  1317 ;; Hardware stack levels required when called:    2
  1318 ;; This function calls:
  1319 ;;		Nothing
  1320 ;; This function is called by:
  1321 ;;		_main
  1322 ;; This function uses a non-reentrant model
  1323 ;;
  1324                           
  1325                           
  1326                           ;psect for function _buzzer
  1327  0226                     _buzzer:	
  1328                           
  1329                           ;main.c: 147:     uint8_t n;;main.c: 148:     for(n=0; n < 2; n++) {
  1330                           
  1331                           ;incstack = 0
  1332                           ; Regs used in _buzzer: [wreg+status,2+status,0]
  1333  0226  0140               	movlb	0	; select bank0
  1334  0227  01A1               	clrf	buzzer@n
  1335  0228                     l99:	
  1336                           
  1337                           ;main.c: 149:         LATBbits.LATB0 = 1;
  1338  0228  1419               	bsf	25,0	;volatile
  1339                           
  1340                           ;main.c: 150:         _delay((unsigned long)((25)*(16000000L/4000.0)));
  1341  0229  3082               	movlw	130
  1342  022A  0140               	movlb	0	; select bank0
  1343  022B  00A0               	movwf	??_buzzer
  1344  022C  30DD               	movlw	221
  1345  022D                     u767:	
  1346  022D  0B89               	decfsz	9,f
  1347  022E  2A2D               	goto	u767
  1348  022F  0BA0               	decfsz	??_buzzer,f
  1349  0230  2A2D               	goto	u767
  1350  0231  3200               	nop2
  1351                           
  1352                           ;main.c: 151:         LATBbits.LATB0 = 0;
  1353  0232  0140               	movlb	0	; select bank0
  1354  0233  1019               	bcf	25,0	;volatile
  1355                           
  1356                           ;main.c: 152:         _delay((unsigned long)((20)*(16000000L/4000.0)));
  1357  0234  3068               	movlw	104
  1358  0235  0140               	movlb	0	; select bank0
  1359  0236  00A0               	movwf	??_buzzer
  1360  0237  30E4               	movlw	228
  1361  0238                     u777:	
  1362  0238  0B89               	decfsz	9,f
  1363  0239  2A38               	goto	u777
  1364  023A  0BA0               	decfsz	??_buzzer,f
  1365  023B  2A38               	goto	u777
  1366  023C  0000               	nop
  1367                           
  1368                           ;main.c: 153:     }
  1369  023D  3001               	movlw	1
  1370  023E  0140               	movlb	0	; select bank0
  1371  023F  00A0               	movwf	??_buzzer
  1372  0240  0820               	movf	??_buzzer,w
  1373  0241  07A1               	addwf	buzzer@n,f
  1374  0242  3002               	movlw	2
  1375  0243  0221               	subwf	buzzer@n,w
  1376  0244  1803               	btfsc	3,0
  1377  0245  0008               	return
  1378  0246  2A28               	goto	l99
  1379  0247                     __end_of_buzzer:	
  1380                           
  1381                           	psect	intentry
  1382  0004                     __pintentry:	
  1383 ;; *************** function _isr *****************
  1384 ;; Defined at:
  1385 ;;		line 38 in file "main.c"
  1386 ;; Parameters:    Size  Location     Type
  1387 ;;		None
  1388 ;; Auto vars:     Size  Location     Type
  1389 ;;		None
  1390 ;; Return value:  Size  Location     Type
  1391 ;;                  1    wreg      void 
  1392 ;; Registers used:
  1393 ;;		wreg, fsr0l, fsr0h, status,2, status,0, pclath, cstack
  1394 ;; Tracked objects:
  1395 ;;		On entry : 0/0
  1396 ;;		On exit  : 0/0
  1397 ;;		Unchanged: 0/0
  1398 ;; Data sizes:     COMMON   BANK0   BANK1   BANK2   BANK3   BANK4   BANK5   BANK6   BANK7   BANK8   BANK9  BANK10  BANK1
      +1  BANK12
  1399 ;;      Params:         0       0       0       0       0       0       0       0       0       0       0       0       
      +0       0
  1400 ;;      Locals:         0       0       0       0       0       0       0       0       0       0       0       0       
      +0       0
  1401 ;;      Temps:          2       0       0       0       0       0       0       0       0       0       0       0       
      +0       0
  1402 ;;      Totals:         2       0       0       0       0       0       0       0       0       0       0       0       
      +0       0
  1403 ;;Total ram usage:        2 bytes
  1404 ;; Hardware stack levels used:    1
  1405 ;; Hardware stack levels required when called:    1
  1406 ;; This function calls:
  1407 ;;		_showDigit
  1408 ;; This function is called by:
  1409 ;;		Interrupt level 1
  1410 ;; This function uses a non-reentrant model
  1411 ;;
  1412                           
  1413  0004                     _isr:	
  1414                           
  1415                           ;incstack = 0
  1416  0004  147E               	bsf	126,0	;set compiler interrupt flag (level 1)
  1417                           
  1418                           ; Regs used in _isr: [wreg-fsr0h+status,2+status,0+pclath+cstack]
  1419  0005  3180               	pagesel	$
  1420                           
  1421                           ;main.c: 39:     uint8_t static state = 0;;main.c: 40:     uint8_t static btnTime = 0;;m
      +                          ain.c: 41:     uint8_t static blinkTime = 0;;main.c: 44:     if (PIR0bits.TMR0IF && PIE0
      +                          bits.TMR0IE) {
  1422  0006  014E               	movlb	14	; select bank14
  1423  0007  1A8C               	btfsc	12,5	;volatile
  1424  0008  1E96               	btfss	22,5	;volatile
  1425  0009  286D               	goto	i1l78
  1426                           
  1427                           ;main.c: 45:         PIR0bits.TMR0IF = 0;
  1428  000A  128C               	bcf	12,5	;volatile
  1429                           
  1430                           ;main.c: 46:         ++tick;
  1431  000B  3001               	movlw	1
  1432  000C  00F3               	movwf	??_isr
  1433  000D  0873               	movf	??_isr,w
  1434  000E  07F8               	addwf	_tick,f	;volatile
  1435                           
  1436                           ;main.c: 48:         if (tick == 0) {
  1437  000F  0878               	movf	_tick,w	;volatile
  1438  0010  1D03               	btfss	3,2
  1439  0011  281B               	goto	i1l969
  1440                           
  1441                           ;main.c: 51:             btnTime++;
  1442  0012  3001               	movlw	1
  1443  0013  00F3               	movwf	??_isr
  1444  0014  0873               	movf	??_isr,w
  1445  0015  07F6               	addwf	isr@btnTime,f
  1446                           
  1447                           ;main.c: 52:             blinkTime++;
  1448  0016  3001               	movlw	1
  1449  0017  00F3               	movwf	??_isr
  1450  0018  0873               	movf	??_isr,w
  1451  0019  07F5               	addwf	isr@blinkTime,f
  1452                           
  1453                           ;main.c: 53:         } else if (tick == 240) {
  1454  001A  2822               	goto	i1l973
  1455  001B                     i1l969:	
  1456  001B  30F0               	movlw	240
  1457  001C  0678               	xorwf	_tick,w	;volatile
  1458  001D  1D03               	btfss	3,2
  1459  001E  2822               	goto	i1l973
  1460                           
  1461                           ;main.c: 55:             showDigit();
  1462  001F  3180  207C  3180   	fcall	_showDigit
  1463  0022                     i1l973:	
  1464                           
  1465                           ;main.c: 58:         if (blinkTime == 0) {
  1466  0022  0875               	movf	isr@blinkTime,w
  1467  0023  1D03               	btfss	3,2
  1468  0024  285D               	goto	i1l1003
  1469                           
  1470                           ;main.c: 59:             LATCbits.LATC4 = ~LATCbits.LATC4;
  1471  0025  1003               	clrc
  1472  0026  0140               	movlb	0	; select bank0
  1473  0027  1E1A               	btfss	26,4	;volatile
  1474  0028  1403               	setc
  1475  0029  1C03               	btfss	3,0
  1476  002A  282E               	goto	u42_20
  1477  002B  0140               	movlb	0	; select bank0
  1478  002C  161A               	bsf	26,4	;volatile
  1479  002D  285D               	goto	i1l1003
  1480  002E                     u42_20:	
  1481  002E  0140               	movlb	0	; select bank0
  1482  002F  121A               	bcf	26,4	;volatile
  1483  0030  285D               	goto	i1l1003
  1484  0031                     i1l67:	
  1485                           ;main.c: 62:             case 0:
  1486                           
  1487                           
  1488                           ;main.c: 63:                 if (!PORTBbits.RB1) {
  1489  0031  0140               	movlb	0	; select bank0
  1490  0032  188D               	btfsc	13,1	;volatile
  1491  0033  286D               	goto	i1l78
  1492                           
  1493                           ;main.c: 64:                     state = 1;
  1494  0034  01F7               	clrf	isr@state
  1495  0035  0AF7               	incf	isr@state,f
  1496                           
  1497                           ;main.c: 65:                     btnTime = 0;
  1498  0036  01F6               	clrf	isr@btnTime
  1499  0037  286D               	goto	i1l78
  1500  0038                     i1l981:	
  1501                           
  1502                           ;main.c: 69:                 if (btnTime > 60) {
  1503  0038  303D               	movlw	61
  1504  0039  0276               	subwf	isr@btnTime,w
  1505  003A  1C03               	skipc
  1506  003B  2841               	goto	i1l985
  1507                           
  1508                           ;main.c: 70:                     btn = 2;
  1509  003C  3002               	movlw	2
  1510  003D  00F3               	movwf	??_isr
  1511  003E  0873               	movf	??_isr,w
  1512  003F  0140               	movlb	0	; select bank0
  1513  0040  00AC               	movwf	_btn	;volatile
  1514  0041                     i1l985:	
  1515                           
  1516                           ;main.c: 72:                 if (PORTBbits.RB1) {
  1517  0041  0140               	movlb	0	; select bank0
  1518  0042  1C8D               	btfss	13,1	;volatile
  1519  0043  286D               	goto	i1l78
  1520                           
  1521                           ;main.c: 73:                     btn = 0;
  1522  0044  01AC               	clrf	_btn	;volatile
  1523                           
  1524                           ;main.c: 74:                     state = 0;
  1525  0045  01F7               	clrf	isr@state
  1526                           
  1527                           ;main.c: 75:                     if (btnTime < 6) {
  1528  0046  3006               	movlw	6
  1529  0047  0276               	subwf	isr@btnTime,w
  1530  0048  1803               	skipnc
  1531  0049  284C               	goto	i1l993
  1532                           
  1533                           ;main.c: 76:                         btn = 0;
  1534  004A  01AC               	clrf	_btn	;volatile
  1535                           
  1536                           ;main.c: 77:                     }
  1537  004B  286D               	goto	i1l78
  1538  004C                     i1l993:	
  1539  004C  3006               	movlw	6
  1540  004D  0276               	subwf	isr@btnTime,w
  1541  004E  1C03               	skipc
  1542  004F  2856               	goto	i1l999
  1543  0050  303D               	movlw	61
  1544  0051  0276               	subwf	isr@btnTime,w
  1545  0052  1803               	skipnc
  1546  0053  2856               	goto	i1l999
  1547                           
  1548                           ;main.c: 79:                         btn = 1;
  1549  0054  3001               	movlw	1
  1550  0055  2857               	goto	L3
  1551  0056                     i1l999:	
  1552                           ;main.c: 80:                     } else {
  1553                           
  1554                           
  1555                           ;main.c: 81:                         btn = 3;
  1556  0056  3003               	movlw	3
  1557  0057                     L3:	
  1558  0057  00F3               	movwf	??_isr
  1559  0058  0873               	movf	??_isr,w
  1560  0059  00AC               	movwf	_btn	;volatile
  1561  005A  286D               	goto	i1l78
  1562  005B                     i1l1001:	
  1563                           
  1564                           ;main.c: 86:                 state = 0;
  1565  005B  01F7               	clrf	isr@state
  1566                           
  1567                           ;main.c: 87:         }
  1568  005C  286D               	goto	i1l78
  1569  005D                     i1l1003:	
  1570  005D  0877               	movf	isr@state,w
  1571  005E  00F3               	movwf	??_isr
  1572  005F  01F4               	clrf	??_isr+1
  1573                           
  1574                           ; Switch on 2 bytes has been partitioned into a top level switch of size 1, and 1 sub-sw
      +                          itches
  1575                           ; Switch size 1, requested type "simple"
  1576                           ; Number of cases is 1, Range of values is 0 to 0
  1577                           ; switch strategies available:
  1578                           ; Name         Instructions Cycles
  1579                           ; simple_byte            4     3 (average)
  1580                           ; direct_byte            8     6 (fixed)
  1581                           ; jumptable            260     6 (fixed)
  1582                           ;	Chosen strategy is simple_byte
  1583  0060  0874               	movf	??_isr+1,w
  1584  0061  3A00               	xorlw	0	; case 0
  1585  0062  1903               	skipnz
  1586  0063  2865               	goto	i1l1251
  1587  0064  285B               	goto	i1l1001
  1588  0065                     i1l1251:	
  1589                           
  1590                           ; Switch size 1, requested type "simple"
  1591                           ; Number of cases is 2, Range of values is 0 to 1
  1592                           ; switch strategies available:
  1593                           ; Name         Instructions Cycles
  1594                           ; simple_byte            7     4 (average)
  1595                           ; direct_byte           10     6 (fixed)
  1596                           ; jumptable            260     6 (fixed)
  1597                           ;	Chosen strategy is simple_byte
  1598  0065  0873               	movf	??_isr,w
  1599  0066  3A00               	xorlw	0	; case 0
  1600  0067  1903               	skipnz
  1601  0068  2831               	goto	i1l67
  1602  0069  3A01               	xorlw	1	; case 1
  1603  006A  1903               	skipnz
  1604  006B  2838               	goto	i1l981
  1605  006C  285B               	goto	i1l1001
  1606  006D                     i1l78:	
  1607  006D  107E               	bcf	126,0	;clear compiler interrupt flag (level 1)
  1608  006E  0009               	retfie
  1609  006F                     __end_of_isr:	
  1610                           
  1611                           	psect	text9
  1612  007C                     __ptext9:	
  1613 ;; *************** function _showDigit *****************
  1614 ;; Defined at:
  1615 ;;		line 91 in file "main.c"
  1616 ;; Parameters:    Size  Location     Type
  1617 ;;		None
  1618 ;; Auto vars:     Size  Location     Type
  1619 ;;		None
  1620 ;; Return value:  Size  Location     Type
  1621 ;;                  1    wreg      void 
  1622 ;; Registers used:
  1623 ;;		wreg, fsr0l, fsr0h, status,2, status,0, pclath
  1624 ;; Tracked objects:
  1625 ;;		On entry : 0/0
  1626 ;;		On exit  : 0/0
  1627 ;;		Unchanged: 0/0
  1628 ;; Data sizes:     COMMON   BANK0   BANK1   BANK2   BANK3   BANK4   BANK5   BANK6   BANK7   BANK8   BANK9  BANK10  BANK1
      +1  BANK12
  1629 ;;      Params:         0       0       0       0       0       0       0       0       0       0       0       0       
      +0       0
  1630 ;;      Locals:         0       0       0       0       0       0       0       0       0       0       0       0       
      +0       0
  1631 ;;      Temps:          3       0       0       0       0       0       0       0       0       0       0       0       
      +0       0
  1632 ;;      Totals:         3       0       0       0       0       0       0       0       0       0       0       0       
      +0       0
  1633 ;;Total ram usage:        3 bytes
  1634 ;; Hardware stack levels used:    1
  1635 ;; This function calls:
  1636 ;;		Nothing
  1637 ;; This function is called by:
  1638 ;;		_isr
  1639 ;; This function uses a non-reentrant model
  1640 ;;
  1641                           
  1642                           
  1643                           ;psect for function _showDigit
  1644  007C                     _showDigit:	
  1645                           
  1646                           ;main.c: 92:     LATCbits.LATC0 = map[digit][0];
  1647                           
  1648                           ;incstack = 0
  1649                           ; Regs used in _showDigit: [wreg-fsr0h+status,2+status,0+pclath]
  1650  007C  0879               	movf	_digit,w	;volatile
  1651  007D  00F0               	movwf	??_showDigit
  1652  007E  01F1               	clrf	??_showDigit+1
  1653  007F  35F0               	lslf	??_showDigit,f
  1654  0080  0DF1               	rlf	??_showDigit+1,f
  1655  0081  35F0               	lslf	??_showDigit,f
  1656  0082  0DF1               	rlf	??_showDigit+1,f
  1657  0083  35F0               	lslf	??_showDigit,f
  1658  0084  0DF1               	rlf	??_showDigit+1,f
  1659  0085  308E               	movlw	low (_map| (0+32768))
  1660  0086  0770               	addwf	??_showDigit,w
  1661  0087  0084               	movwf	4
  1662  0088  3081               	movlw	high (_map| (0+32768))
  1663  0089  3D71               	addwfc	??_showDigit+1,w
  1664  008A  0085               	movwf	5
  1665  008B  0800               	movf	0,w	;code access
  1666  008C  00F2               	movwf	??_showDigit+2
  1667  008D  0140               	movlb	0	; select bank0
  1668  008E  081A               	movf	26,w	;volatile
  1669  008F  0672               	xorwf	??_showDigit+2,w
  1670  0090  39FE               	andlw	-2
  1671  0091  0672               	xorwf	??_showDigit+2,w
  1672  0092  009A               	movwf	26	;volatile
  1673                           
  1674                           ;main.c: 93:     LATCbits.LATC1 = map[digit][1];
  1675  0093  0879               	movf	_digit,w	;volatile
  1676  0094  00F0               	movwf	??_showDigit
  1677  0095  01F1               	clrf	??_showDigit+1
  1678  0096  35F0               	lslf	??_showDigit,f
  1679  0097  0DF1               	rlf	??_showDigit+1,f
  1680  0098  35F0               	lslf	??_showDigit,f
  1681  0099  0DF1               	rlf	??_showDigit+1,f
  1682  009A  35F0               	lslf	??_showDigit,f
  1683  009B  0DF1               	rlf	??_showDigit+1,f
  1684  009C  308F               	movlw	low ((_map+1)| (0+32768))
  1685  009D  0770               	addwf	??_showDigit,w
  1686  009E  0084               	movwf	4
  1687  009F  3081               	movlw	high ((_map+1)| (0+32768))
  1688  00A0  3D71               	addwfc	??_showDigit+1,w
  1689  00A1  0085               	movwf	5
  1690  00A2  0800               	movf	0,w	;code access
  1691  00A3  00F2               	movwf	??_showDigit+2
  1692  00A4  0DF2               	rlf	??_showDigit+2,f
  1693  00A5  081A               	movf	26,w	;volatile
  1694  00A6  0672               	xorwf	??_showDigit+2,w
  1695  00A7  39FD               	andlw	-3
  1696  00A8  0672               	xorwf	??_showDigit+2,w
  1697  00A9  009A               	movwf	26	;volatile
  1698                           
  1699                           ;main.c: 94:     LATCbits.LATC2 = map[digit][2];
  1700  00AA  0879               	movf	_digit,w	;volatile
  1701  00AB  00F0               	movwf	??_showDigit
  1702  00AC  01F1               	clrf	??_showDigit+1
  1703  00AD  35F0               	lslf	??_showDigit,f
  1704  00AE  0DF1               	rlf	??_showDigit+1,f
  1705  00AF  35F0               	lslf	??_showDigit,f
  1706  00B0  0DF1               	rlf	??_showDigit+1,f
  1707  00B1  35F0               	lslf	??_showDigit,f
  1708  00B2  0DF1               	rlf	??_showDigit+1,f
  1709  00B3  3090               	movlw	low ((_map+2)| (0+32768))
  1710  00B4  0770               	addwf	??_showDigit,w
  1711  00B5  0084               	movwf	4
  1712  00B6  3081               	movlw	high ((_map+2)| (0+32768))
  1713  00B7  3D71               	addwfc	??_showDigit+1,w
  1714  00B8  0085               	movwf	5
  1715  00B9  0800               	movf	0,w	;code access
  1716  00BA  00F2               	movwf	??_showDigit+2
  1717  00BB  0DF2               	rlf	??_showDigit+2,f
  1718  00BC  0DF2               	rlf	??_showDigit+2,f
  1719  00BD  081A               	movf	26,w	;volatile
  1720  00BE  0672               	xorwf	??_showDigit+2,w
  1721  00BF  39FB               	andlw	-5
  1722  00C0  0672               	xorwf	??_showDigit+2,w
  1723  00C1  009A               	movwf	26	;volatile
  1724                           
  1725                           ;main.c: 95:     LATCbits.LATC3 = map[digit][3];
  1726  00C2  0879               	movf	_digit,w	;volatile
  1727  00C3  00F0               	movwf	??_showDigit
  1728  00C4  01F1               	clrf	??_showDigit+1
  1729  00C5  35F0               	lslf	??_showDigit,f
  1730  00C6  0DF1               	rlf	??_showDigit+1,f
  1731  00C7  35F0               	lslf	??_showDigit,f
  1732  00C8  0DF1               	rlf	??_showDigit+1,f
  1733  00C9  35F0               	lslf	??_showDigit,f
  1734  00CA  0DF1               	rlf	??_showDigit+1,f
  1735  00CB  3091               	movlw	low ((_map+3)| (0+32768))
  1736  00CC  0770               	addwf	??_showDigit,w
  1737  00CD  0084               	movwf	4
  1738  00CE  3081               	movlw	high ((_map+3)| (0+32768))
  1739  00CF  3D71               	addwfc	??_showDigit+1,w
  1740  00D0  0085               	movwf	5
  1741  00D1  0800               	movf	0,w	;code access
  1742  00D2  00F2               	movwf	??_showDigit+2
  1743  00D3  0DF2               	rlf	??_showDigit+2,f
  1744  00D4  0DF2               	rlf	??_showDigit+2,f
  1745  00D5  0DF2               	rlf	??_showDigit+2,f
  1746  00D6  081A               	movf	26,w	;volatile
  1747  00D7  0672               	xorwf	??_showDigit+2,w
  1748  00D8  39F7               	andlw	-9
  1749  00D9  0672               	xorwf	??_showDigit+2,w
  1750  00DA  009A               	movwf	26	;volatile
  1751                           
  1752                           ;main.c: 96:     LATCbits.LATC5 = map[digit][5];
  1753  00DB  0879               	movf	_digit,w	;volatile
  1754  00DC  00F0               	movwf	??_showDigit
  1755  00DD  01F1               	clrf	??_showDigit+1
  1756  00DE  35F0               	lslf	??_showDigit,f
  1757  00DF  0DF1               	rlf	??_showDigit+1,f
  1758  00E0  35F0               	lslf	??_showDigit,f
  1759  00E1  0DF1               	rlf	??_showDigit+1,f
  1760  00E2  35F0               	lslf	??_showDigit,f
  1761  00E3  0DF1               	rlf	??_showDigit+1,f
  1762  00E4  3093               	movlw	low ((_map+5)| (0+32768))
  1763  00E5  0770               	addwf	??_showDigit,w
  1764  00E6  0084               	movwf	4
  1765  00E7  3081               	movlw	high ((_map+5)| (0+32768))
  1766  00E8  3D71               	addwfc	??_showDigit+1,w
  1767  00E9  0085               	movwf	5
  1768  00EA  0800               	movf	0,w	;code access
  1769  00EB  00F2               	movwf	??_showDigit+2
  1770  00EC  0EF2               	swapf	??_showDigit+2,f
  1771  00ED  0DF2               	rlf	??_showDigit+2,f
  1772  00EE  081A               	movf	26,w	;volatile
  1773  00EF  0672               	xorwf	??_showDigit+2,w
  1774  00F0  39DF               	andlw	-33
  1775  00F1  0672               	xorwf	??_showDigit+2,w
  1776  00F2  009A               	movwf	26	;volatile
  1777                           
  1778                           ;main.c: 97:     LATCbits.LATC6 = map[digit][6];
  1779  00F3  0879               	movf	_digit,w	;volatile
  1780  00F4  00F0               	movwf	??_showDigit
  1781  00F5  01F1               	clrf	??_showDigit+1
  1782  00F6  35F0               	lslf	??_showDigit,f
  1783  00F7  0DF1               	rlf	??_showDigit+1,f
  1784  00F8  35F0               	lslf	??_showDigit,f
  1785  00F9  0DF1               	rlf	??_showDigit+1,f
  1786  00FA  35F0               	lslf	??_showDigit,f
  1787  00FB  0DF1               	rlf	??_showDigit+1,f
  1788  00FC  3094               	movlw	low ((_map+6)| (0+32768))
  1789  00FD  0770               	addwf	??_showDigit,w
  1790  00FE  0084               	movwf	4
  1791  00FF  3081               	movlw	high ((_map+6)| (0+32768))
  1792  0100  3D71               	addwfc	??_showDigit+1,w
  1793  0101  0085               	movwf	5
  1794  0102  0800               	movf	0,w	;code access
  1795  0103  00F2               	movwf	??_showDigit+2
  1796  0104  0EF2               	swapf	??_showDigit+2,f
  1797  0105  0DF2               	rlf	??_showDigit+2,f
  1798  0106  0DF2               	rlf	??_showDigit+2,f
  1799  0107  081A               	movf	26,w	;volatile
  1800  0108  0672               	xorwf	??_showDigit+2,w
  1801  0109  39BF               	andlw	-65
  1802  010A  0672               	xorwf	??_showDigit+2,w
  1803  010B  009A               	movwf	26	;volatile
  1804                           
  1805                           ;main.c: 98:     LATCbits.LATC7 = map[digit][7];
  1806  010C  0879               	movf	_digit,w	;volatile
  1807  010D  00F0               	movwf	??_showDigit
  1808  010E  01F1               	clrf	??_showDigit+1
  1809  010F  35F0               	lslf	??_showDigit,f
  1810  0110  0DF1               	rlf	??_showDigit+1,f
  1811  0111  35F0               	lslf	??_showDigit,f
  1812  0112  0DF1               	rlf	??_showDigit+1,f
  1813  0113  35F0               	lslf	??_showDigit,f
  1814  0114  0DF1               	rlf	??_showDigit+1,f
  1815  0115  3095               	movlw	low ((_map+7)| (0+32768))
  1816  0116  0770               	addwf	??_showDigit,w
  1817  0117  0084               	movwf	4
  1818  0118  3081               	movlw	high ((_map+7)| (0+32768))
  1819  0119  3D71               	addwfc	??_showDigit+1,w
  1820  011A  0085               	movwf	5
  1821  011B  0800               	movf	0,w	;code access
  1822  011C  00F2               	movwf	??_showDigit+2
  1823  011D  0CF2               	rrf	??_showDigit+2,f
  1824  011E  0CF2               	rrf	??_showDigit+2,f
  1825  011F  081A               	movf	26,w	;volatile
  1826  0120  0672               	xorwf	??_showDigit+2,w
  1827  0121  397F               	andlw	-129
  1828  0122  0672               	xorwf	??_showDigit+2,w
  1829  0123  009A               	movwf	26	;volatile
  1830  0124  0008               	return
  1831  0125                     __end_of_showDigit:	
  1832  007E                     btemp	set	126	;btemp
  1833  007E                     int$flags	set	126
  1834  007E                     wtemp0	set	126


Data Sizes:
    Strings     0
    Constant    88
    Data        0
    BSS         6
    Persistent  33
    Stack       0

Auto Spaces:
    Space          Size  Autos    Used
    COMMON           14      5      10
    BANK0            80     11      13
    BANK1            80      0       0
    BANK2            80      0       0
    BANK3            80      0       0
    BANK4            80      0       0
    BANK5            80      0       0
    BANK6            80      0       0
    BANK7            80      0       0
    BANK8            80      0       0
    BANK9            80      0       0
    BANK10           80      0       0
    BANK11           80      0       0
    BANK12           48      0       0

Pointer List with Targets:

    None.

Critical Paths under _main in COMMON

    None.

Critical Paths under _isr in COMMON

    _isr->_showDigit

Critical Paths under _main in BANK0

    _main->_queryInputs

Critical Paths under _isr in BANK0

    None.

Critical Paths under _main in BANK1

    None.

Critical Paths under _isr in BANK1

    None.

Critical Paths under _main in BANK2

    None.

Critical Paths under _isr in BANK2

    None.

Critical Paths under _main in BANK3

    None.

Critical Paths under _isr in BANK3

    None.

Critical Paths under _main in BANK4

    None.

Critical Paths under _isr in BANK4

    None.

Critical Paths under _main in BANK5

    None.

Critical Paths under _isr in BANK5

    None.

Critical Paths under _main in BANK6

    None.

Critical Paths under _isr in BANK6

    None.

Critical Paths under _main in BANK7

    None.

Critical Paths under _isr in BANK7

    None.

Critical Paths under _main in BANK8

    None.

Critical Paths under _isr in BANK8

    None.

Critical Paths under _main in BANK9

    None.

Critical Paths under _isr in BANK9

    None.

Critical Paths under _main in BANK10

    None.

Critical Paths under _isr in BANK10

    None.

Critical Paths under _main in BANK11

    None.

Critical Paths under _isr in BANK11

    None.

Critical Paths under _main in BANK12

    None.

Critical Paths under _isr in BANK12

    None.

Call Graph Tables:

 ---------------------------------------------------------------------------------
 (Depth) Function   	        Calls       Base Space   Used Autos Params    Refs
 ---------------------------------------------------------------------------------
 (0) _main                                                 4     4      0     489
                                              7 BANK0      4     4      0
                             _buzzer
                               _init
                        _queryInputs
 ---------------------------------------------------------------------------------
 (1) _queryInputs                                          7     7      0     223
                                              0 BANK0      7     7      0
 ---------------------------------------------------------------------------------
 (1) _init                                                 0     0      0       0
                            _initInt
                            _initOsc
                          _initPorts
                         _initTimer0
 ---------------------------------------------------------------------------------
 (2) _initTimer0                                           0     0      0       0
 ---------------------------------------------------------------------------------
 (2) _initPorts                                            0     0      0       0
 ---------------------------------------------------------------------------------
 (2) _initOsc                                              0     0      0       0
 ---------------------------------------------------------------------------------
 (2) _initInt                                              0     0      0       0
 ---------------------------------------------------------------------------------
 (1) _buzzer                                               2     2      0      68
                                              0 BANK0      2     2      0
 ---------------------------------------------------------------------------------
 Estimated maximum stack depth 2
 ---------------------------------------------------------------------------------
 (Depth) Function   	        Calls       Base Space   Used Autos Params    Refs
 ---------------------------------------------------------------------------------
 (3) _isr                                                  2     2      0       0
                                              3 COMMON     2     2      0
                          _showDigit
 ---------------------------------------------------------------------------------
 (4) _showDigit                                            3     3      0       0
                                              0 COMMON     3     3      0
 ---------------------------------------------------------------------------------
 Estimated maximum stack depth 4
 ---------------------------------------------------------------------------------

 Call Graph Graphs:

 _main (ROOT)
   _buzzer
   _init
     _initInt
     _initOsc
     _initPorts
     _initTimer0
   _queryInputs

 _isr (ROOT)
   _showDigit

 Address spaces:
Name               Size   Autos  Total    Cost      Usage
BIGRAM             3F0      0       0       0        0.0%
NULL                 0      0       0       0        0.0%
CODE                 0      0       0       0        0.0%
BITCOMMON            E      0       0       1        0.0%
BITSFR0              0      0       0       1        0.0%
SFR0                 0      0       0       1        0.0%
COMMON               E      5       A       2       71.4%
BITSFR1              0      0       0       2        0.0%
SFR1                 0      0       0       2        0.0%
BITSFR2              0      0       0       3        0.0%
SFR2                 0      0       0       3        0.0%
STACK                0      0       0       3        0.0%
BITSFR3              0      0       0       4        0.0%
SFR3                 0      0       0       4        0.0%
ABS                  0      0      17       4        0.0%
BITBANK0            50      0       0       5        0.0%
BITSFR4              0      0       0       5        0.0%
SFR4                 0      0       0       5        0.0%
BANK0               50      B       D       6       16.3%
BITSFR5              0      0       0       6        0.0%
SFR5                 0      0       0       6        0.0%
BITBANK1            50      0       0       7        0.0%
BITSFR6              0      0       0       7        0.0%
SFR6                 0      0       0       7        0.0%
BANK1               50      0       0       8        0.0%
BITSFR7              0      0       0       8        0.0%
SFR7                 0      0       0       8        0.0%
BITBANK2            50      0       0       9        0.0%
BITSFR8              0      0       0       9        0.0%
SFR8                 0      0       0       9        0.0%
BANK2               50      0       0      10        0.0%
BITSFR9              0      0       0      10        0.0%
SFR9                 0      0       0      10        0.0%
BITBANK3            50      0       0      11        0.0%
BITSFR10             0      0       0      11        0.0%
SFR10                0      0       0      11        0.0%
BANK3               50      0       0      12        0.0%
BITSFR11             0      0       0      12        0.0%
SFR11                0      0       0      12        0.0%
BITBANK4            50      0       0      13        0.0%
BITSFR12             0      0       0      13        0.0%
SFR12                0      0       0      13        0.0%
BANK4               50      0       0      14        0.0%
BITSFR13             0      0       0      14        0.0%
SFR13                0      0       0      14        0.0%
BITBANK5            50      0       0      15        0.0%
BITSFR14             0      0       0      15        0.0%
SFR14                0      0       0      15        0.0%
BANK5               50      0       0      16        0.0%
BITSFR15             0      0       0      16        0.0%
SFR15                0      0       0      16        0.0%
BITBANK6            50      0       0      17        0.0%
BITSFR16             0      0       0      17        0.0%
SFR16                0      0       0      17        0.0%
BANK6               50      0       0      18        0.0%
BITSFR17             0      0       0      18        0.0%
SFR17                0      0       0      18        0.0%
BITBANK7            50      0       0      19        0.0%
BITSFR18             0      0       0      19        0.0%
SFR18                0      0       0      19        0.0%
BANK7               50      0       0      20        0.0%
BITSFR19             0      0       0      20        0.0%
SFR19                0      0       0      20        0.0%
BITBANK8            50      0       0      21        0.0%
BITSFR20             0      0       0      21        0.0%
SFR20                0      0       0      21        0.0%
BANK8               50      0       0      22        0.0%
BITSFR21             0      0       0      22        0.0%
SFR21                0      0       0      22        0.0%
BITBANK9            50      0       0      23        0.0%
BITSFR22             0      0       0      23        0.0%
SFR22                0      0       0      23        0.0%
BANK9               50      0       0      24        0.0%
BITSFR23             0      0       0      24        0.0%
SFR23                0      0       0      24        0.0%
BITBANK10           50      0       0      25        0.0%
BITSFR24             0      0       0      25        0.0%
SFR24                0      0       0      25        0.0%
BANK10              50      0       0      26        0.0%
BITSFR25             0      0       0      26        0.0%
SFR25                0      0       0      26        0.0%
BITBANK11           50      0       0      27        0.0%
BITSFR26             0      0       0      27        0.0%
SFR26                0      0       0      27        0.0%
BANK11              50      0       0      28        0.0%
BITSFR27             0      0       0      28        0.0%
SFR27                0      0       0      28        0.0%
BITBANK12           30      0       0      29        0.0%
BITSFR28             0      0       0      29        0.0%
SFR28                0      0       0      29        0.0%
BANK12              30      0       0      30        0.0%
BITSFR29             0      0       0      30        0.0%
SFR29                0      0       0      30        0.0%
BITSFR30             0      0       0      31        0.0%
SFR30                0      0       0      31        0.0%
DATA                 0      0      17      31        0.0%
BITSFR31             0      0       0      32        0.0%
SFR31                0      0       0      32        0.0%
BITSFR32             0      0       0      33        0.0%
SFR32                0      0       0      33        0.0%
BITSFR33             0      0       0      34        0.0%
SFR33                0      0       0      34        0.0%
BITSFR34             0      0       0      35        0.0%
SFR34                0      0       0      35        0.0%
BITSFR35             0      0       0      36        0.0%
SFR35                0      0       0      36        0.0%
BITSFR36             0      0       0      37        0.0%
SFR36                0      0       0      37        0.0%
BITSFR37             0      0       0      38        0.0%
SFR37                0      0       0      38        0.0%
BITSFR38             0      0       0      39        0.0%
SFR38                0      0       0      39        0.0%
BITSFR39             0      0       0      40        0.0%
SFR39                0      0       0      40        0.0%
BITSFR40             0      0       0      41        0.0%
SFR40                0      0       0      41        0.0%
BITSFR41             0      0       0      42        0.0%
SFR41                0      0       0      42        0.0%
BITSFR42             0      0       0      43        0.0%
SFR42                0      0       0      43        0.0%
BITSFR43             0      0       0      44        0.0%
SFR43                0      0       0      44        0.0%
BITSFR44             0      0       0      45        0.0%
SFR44                0      0       0      45        0.0%
BITSFR45             0      0       0      46        0.0%
SFR45                0      0       0      46        0.0%
BITSFR46             0      0       0      47        0.0%
SFR46                0      0       0      47        0.0%
BITSFR47             0      0       0      48        0.0%
SFR47                0      0       0      48        0.0%
BITSFR48             0      0       0      49        0.0%
SFR48                0      0       0      49        0.0%
BITSFR49             0      0       0      50        0.0%
SFR49                0      0       0      50        0.0%
BITSFR50             0      0       0      51        0.0%
SFR50                0      0       0      51        0.0%
BITSFR51             0      0       0      52        0.0%
SFR51                0      0       0      52        0.0%
BITSFR52             0      0       0      53        0.0%
SFR52                0      0       0      53        0.0%
BITSFR53             0      0       0      54        0.0%
SFR53                0      0       0      54        0.0%
BITSFR54             0      0       0      55        0.0%
SFR54                0      0       0      55        0.0%
BITSFR55             0      0       0      56        0.0%
SFR55                0      0       0      56        0.0%
BITSFR56             0      0       0      57        0.0%
SFR56                0      0       0      57        0.0%
BITSFR57             0      0       0      58        0.0%
SFR57                0      0       0      58        0.0%
BITSFR58             0      0       0      59        0.0%
SFR58                0      0       0      59        0.0%
BITSFR59             0      0       0      60        0.0%
SFR59                0      0       0      60        0.0%
BITSFR60             0      0       0      61        0.0%
SFR60                0      0       0      61        0.0%
BITSFR61             0      0       0      62        0.0%
SFR61                0      0       0      62        0.0%
BITSFR62             0      0       0      63        0.0%
SFR62                0      0       0      63        0.0%
BITSFR63             0      0       0      64        0.0%
SFR63                0      0       0      64        0.0%


Microchip Technology PIC Macro Assembler V2.05 build -831301201 
Symbol Table                                                                                   Wed Dec 18 17:55:19 2019

            __CFG_CP$OFF 0000                       l99 0228              _queryInputs 01E6  
            __CFG_LVP$ON 0000                      l120 0144                      u604 01F4  
                    u605 01F2                      u644 0213                      u645 0212  
                    u734 016E                      u735 016D                      u757 017B  
                    u694 0149                      u767 022D                      u695 0148  
                    u777 0238                      _btn 002C                      _map 018E  
                    _isr 0004             __CFG_BORV$LO 0000                      wreg 0009  
          __CFG_BBEN$OFF 0000             __CFG_ZCD$OFF 0000                     l1201 015A  
                   l1213 0169                     l1161 0207                     l1153 01E8  
                   l1171 021D                     l1167 020E                     l1191 0140  
                   l1183 012F                     l1195 0151                     l1179 015B  
                   ?_isr 0070                     _LATC 001A                     i1l67 0031  
                   i1l78 006D            __CFG_FCMEN$ON 0000                     _main 0125  
                   _init 026B                     _tick 0078                     fsr0h 0005  
                   indf0 0000                     fsr0l 0004                     btemp 007E  
          __CFG_BOREN$ON 0000                     start 006F            __CFG_CSWEN$ON 0000  
                  ??_isr 0073                    ?_main 0070                    ?_init 0070  
          __CFG_WDTE$OFF 0000                    i1l981 0038                    i1l973 0022  
                  i1l993 004C                    i1l985 0041                    i1l969 001B  
                  i1l999 0056                    u42_20 002E                    _PORTA 000C  
                  _TRISA 0012                    _TRISC 0014            __CFG_WRTB$OFF 0000  
          __CFG_WRTC$OFF 0000                    _digit 0079          __end_of_initInt 027F  
        __end_of_initOsc 027D                    main@n 0029                    status 0003  
                  wtemp0 007E           __CFG_MCLRE$OFF 0000          __initialization 0071  
           __end_of_main 018E             __end_of_init 0277           __CFG_SAFEN$OFF 0000  
                 ??_main 0027                   ??_init 0020                   _ANSELA 1F38  
                 _ANSELB 1F43                   _ANSELC 1F4E       __CFG_RSTOSC$HFINT1 0000  
                 i1l1001 005B                   i1l1003 005D                   i1l1251 0065  
         __CFG_WDTCCS$SC 0000                   _OSCFRQ 0893             queryInputs@n 0026  
         __CFG_PWRTE$OFF 0000           __CFG_STVREN$ON 0000                   _alarms 002B  
                 _buzzer 0226                ??_initInt 0020                ??_initOsc 0020  
__end_of__initialization 0078           __pcstackCOMMON 0070             ?_queryInputs 0070  
             __pbssBANK0 002B               __pnvCOMMON 0079       __size_of_initPorts 0016  
             __pmaintext 0125             isr@blinkTime 0075          __CFG_PPS1WAY$ON 0000  
             __pintentry 0004                  ?_buzzer 0070       __size_of_showDigit 00A9  
                _OSCCON1 088D               _initTimer0 025D          __size_of_buzzer 0021  
                __ptext1 01E6                  __ptext2 026B                  __ptext3 025D  
                __ptext4 0247                  __ptext5 0277                  __ptext6 027D  
                __ptext7 0226                  __ptext9 007C          __CFG_WRTAPP$OFF 0000  
      __end_of_initPorts 025D                  _initInt 027D                  _initOsc 0277  
           __size_of_isr 006B          __CFG_WRTSAF$OFF 0000     end_of_initialization 0078  
                buzzer@n 0021        __end_of_showDigit 0125    __CFG_WDTCPS$WDTCPS_31 0000  
              _PORTBbits 000D     __size_of_queryInputs 0040                _TRISBbits 0013  
       __CFG_FEXTOSC$OFF 0000              ?_initTimer0 0070           __end_of_buzzer 0247  
    start_initialization 0071              __end_of_map 01E6              __end_of_isr 006F  
             isr@btnTime 0076         __CFG_LPBOREN$OFF 0000                 ??_buzzer 0020  
            __pbssCOMMON 0075                ___latbits 0002            __pcstackBANK0 0020  
    __size_of_initTimer0 000E                 ?_initInt 0070                 ?_initOsc 0070  
              _initPorts 0247                 _LATBbits 0019                 _LATCbits 001A  
               _PIE0bits 0716                 _PIR0bits 070C                _showDigit 007C  
      __CFG_BBSIZE$BB512 0000               ?_initPorts 0070               ?_showDigit 0070  
           ??_initTimer0 0020            ??_queryInputs 0020               _T0CON0bits 059E  
             _T0CON1bits 059F         __size_of_initInt 0002         __size_of_initOsc 0006  
     __end_of_initTimer0 026B            __size_of_main 0069            __size_of_init 000C  
   __CFG_WDTCWS$WDTCWS_7 0000                 int$flags 007E                 main@show 002A  
             _INTCONbits 000B      __end_of_queryInputs 0226                 isr@state 0077  
            ??_initPorts 0020                 intlevel1 0000        __CFG_CLKOUTEN$OFF 0000  
            ??_showDigit 0070            __pstringtext1 018E  
